:020000040800F2
:1000000000500020E5010008000000000000000092
:10001000E1010008E1010008E10100080000000022
:10002000000000000000000000000000E1010008E6
:10003000E101000800000000E1010008E101000802
:10004000E1010008E1010008E1010008E101000808
:10005000E1010008E1010008E1010008E1010008F8
:10006000E1010008E1010008E1010008E1010008E8
:10007000E1010008E1010008E1010008E1010008D8
:10008000E1010008E1010008E1010008E1010008C8
:10009000E1010008E1010008E1010008E1010008B8
:1000A000E1010008E1010008E1010008E1010008A8
:1000B000E1010008E1010008E1010008E101000898
:1000C000E1010008E1010008E1010008E101000888
:1000D000E1010008E1010008E1010008E101000878
:1000E000E1010008E1010008E1010008E101000868
:1000F000E1010008E1010008E1010008E101000858
:10010000E1010008E1010008E1010008E101000847
:10011000E1010008E1010008E1010008E101000837
:10012000E1010008E1010008E1010008E101000827
:1001300000000000000000000000000000000000BF
:1001400000000000000000000000000000000000AF
:10015000000000000000000000000000000000009F
:10016000000000000000000000000000000000008F
:10017000000000000000000000000000000000007F
:10018000000000000000000000000000000000006F
:10019000000000000000000000000000000000005F
:1001A000000000000000000000000000000000004F
:1001B000000000000000000000000000000000003F
:1001C000000000000000000000000000000000002F
:1001D0000000000000000000000000005FF8E0F1F7
:1001E000FEE700BF684620F007018D461448154918
:1001F00008B5814209D0144B984206D2C243134439
:1002000023F00302043200F0E3FD1048104B984243
:1002100007D2C243134423F003020432002100F04A
:100220004DFE0C4B0C4A23F0684323F07F0343F050
:100230000063936000F06AF800F038F8FEE700BF52
:1002400000000020580F000828000020280000208F
:10025000280000200000000000ED00E00E490F48DB
:1002600008B5814209D00E4B984206D2C2431A44C7
:1002700022F00302043200F0ABFD0A480A4B984218
:1002800009D2C2431A4422F0030204320021BDE81D
:10029000084000F013BE08BD580F00080000002001
:1002A00028000020280000202800002010B501218F
:1002B00082B0102000F010FD4FF480740222102351
:1002C00001A90F48ADF804408DF806208DF80730DD
:1002D00000F044F900F018F8002803DD0023013392
:1002E0009842FCD101224FF48071054800F03CFB9C
:1002F00000224FF48071024800F036FBEAE700BFAD
:1003000000100140704700BF0A2070473C4B30B4DA
:1003100018683C4940F0010018605D6882B02940CF
:1003200059601968002021F0847121F4803119602E
:1003300019684FF41F0421F48021196059681A4686
:1003400021F4FE0159609C6000900190196841F40D
:100350008031196003E0009BB3F5A06F09D01368EA
:1003600003F400330193009B01330093019B002BA6
:10037000F1D0234B1B6813F4003318BF0123019302
:10038000019B012B06D0204B4FF000629A6002B017
:1003900030BC70471D4A1A4B1068194640F01000D7
:1003A0001060106820F003001060106840F0020038
:1003B00010605A685A605A685A605A6842F48062FB
:1003C0005A605A6822F47C125A605A6842F4E81261
:1003D0005A601A6842F080721A600B68084A9B01E2
:1003E000FBD51146536823F003035360536843F071
:1003F000020353604B6803F00C03082BFAD1C2E7E9
:10040000001002400000FFF800ED00E00020024074
:10041000114A536803F00C03082B0ED1536851683E
:10042000C3F38343C90303F1020310D55268920357
:100430000DD40A4A02FB03F300E0084B064A0849C0
:100440005268C2F303128A5CD3400B617047054ABD
:1004500002FB03F3F2E700BF0010024000127A0033
:100460000000002000093D0008B52F4B98421ED027
:100470002E4B984225D02E4B98422CD02D4B984293
:1004800033D02D4B98423AD02C4B984241D02C4B34
:10049000984200D008BD01214FF4807000F038FC74
:1004A000BDE8084000214FF4807000F031BC01210C
:1004B000042000F02DFCBDE808400021042000F0DD
:1004C00027BC0121082000F023FCBDE808400021E2
:1004D000082000F01DBC0121102000F019FCBDE82F
:1004E00008400021102000F013BC0121202000F062
:1004F0000FFCBDE808400021202000F009BC0121CC
:10050000402000F005FCBDE808400021402000F03C
:10051000FFBB0121802000F0FBFBBDE8084000216B
:10052000802000F0F5BB00BF00080140000C014036
:10053000001001400014014000180140001C01405F
:100540000020014008B50121084600F0E1FBBDE8AC
:1005500008400021012000F0DBBB00BF30B4CD78A3
:10056000EB0648BF8B7805F00F0448BF1C430B888F
:1005700013F0FF0F33D0482D026800F09980282D2A
:1005800000F0FB80D90744BF22F00F0222439907F5
:1005900044BF22F0F00242EA0412590744BF22F499
:1005A000706242EA0422190744BF22F4704242EA10
:1005B0000432D90644BF22F4702242EA044299066A
:1005C00044BF22F4700242EA0452590644BF22F0AA
:1005D000706242EA0462190600F19F800260FF2BFC
:1005E00031D9282D426830D0482D00F09980D905A6
:1005F00044BF22F00F0222439D0544BF22F0F002C7
:1006000042EA0412590544BF22F4706242EA04220D
:100610001D0544BF22F4704242EA0432D90444BFAB
:1006200022F4702242EA04429D0444BF22F4700284
:1006300042EA0452590444BF22F0706242EA046262
:100640001B0467D4426030BC704703F4807189B2E8
:10065000002940F0118103F4007189B2002940F0B3
:10066000058103F4806189B2002940F0F98003F428
:10067000006189B2002940F0ED8003F4805189B215
:10068000002940F0E18003F4005189B2002940F0D4
:10069000D58003F4804189B2002940F0C98003F479
:1006A00000439BB2002BCDD064F31F724361C9E7B6
:1006B00013F0010140F0038103F0020189B2002927
:1006C00040F0F78003F0040189B2002940F0EB808C
:1006D00003F0080189B2002940F0DF8003F0100127
:1006E00089B2002940F0D38003F0200189B20029AB
:1006F00040F0C78003F0400189B2002940F0E48057
:1007000003F0800189B200293FF468AF64F31F72DF
:10071000016163E764F31F7294E764F31F725DE79E
:1007200003F4807189B200296BD103F4007189B29E
:10073000002960D103F4806189B2002955D103F406
:10074000006189B200294AD103F4805189B200299D
:1007500062D103F4005189B2002957D103F48041DA
:1007600089B200295ED103F400439BB2002B3FF411
:1007700069AF64F31F72036164E713F0010140F095
:10078000CD8003F0020189B2002940F0C18003F05E
:10079000040189B2002940F0B58003F0080189B254
:1007A000002940F0A98003F0100189B2002940F02F
:1007B0009D8003F0200189B2002940F0918003F070
:1007C000400189B2002940F0858003F0800189B2A0
:1007D00000293FF403AF64F31F724161FEE622F487
:1007E000704242EA04320161AEE722F4706242EAEA
:1007F00004220161A3E722F0F00242EA041201613F
:1008000098E722F00F02224301618EE722F4700282
:1008100042EA04520161A1E722F4702242EA044252
:10082000016196E722F0706242EA046201619AE790
:1008300022F0706242EA0462416130E722F4700201
:1008400042EA0452416124E722F4702242EA04425F
:10085000416118E722F4704242EA043241610CE738
:1008600022F4706242EA0422416100E722F0F002C1
:1008700042EA04124161F4E622F00F022243416190
:10088000E9E622F4700242EA0452016132E722F4FE
:10089000702242EA0442016126E722F4704242EAF1
:1008A000043201611AE722F4706242EA0422016113
:1008B0000EE722F0F00242EA0412016102E722F0A0
:1008C0000F0222430161F7E622F0706242EA0462FD
:1008D000016115E722F0706242EA0462416174E747
:1008E00022F4700242EA0452416168E722F4702265
:1008F00042EA044241615CE722F4704242EA043277
:10090000416150E722F4706242EA0422416144E707
:1009100022F0F00242EA0412416138E722F00F02AD
:10092000224341612DE700BF4FF6FF7102220423ED
:1009300001808270C37070478368194214BF012020
:1009400000207047806880B2704700BFC3681942BA
:1009500014BF012000207047C06880B2704700BFFC
:1009600001617047416170470AB941617047016197
:10097000704700BFC160704741F48033836181617B
:1009800083618369836970474FF68073044A10B4AA
:1009900014682340194341EA0010106010BC7047EE
:1009A00000000140014B1860704700BF1C0020424E
:1009B0000028194B00F44012B4BFDB695B68B2F544
:1009C000401F30B484B21ED0C20213D5C0F3034519
:1009D0000322AA4023EA020343F0706319B1420DD7
:1009E0001201944023430C4A0028B4BFD3615360E2
:1009F00030BC7047420D120104FA02F223EA0203EE
:100A000043F07063EAE7044D23F070636A6822F0F4
:100A100070626A60E2E700BF0000014001F0FC0381
:100A200003F1804303F5803301F0030110B4890022
:100A30009C680F228A4024EA02029A609A688840E1
:100A40001043986010BC7047014B1860704700BF9E
:100A5000DC0020420D4B0E4A19684FF41F0041F094
:100A60000101196059680A405A601A6822F08472BC
:100A700022F480321A601A6822F480221A605A68BE
:100A800022F4FE025A609860704700BF00100240D6
:100A90000000FFF80C4BB0F5803F1A6822F480325A
:100AA0001A601A6822F480221A6008D0B0F5802FEC
:100AB00004D11A6842F4A0221A60704770471A687D
:100AC00042F480321A6070470010024082B0002366
:100AD0000A4A019302E0B3F5A06F08D0136813F43B
:100AE000003F019B03F101030193019BF3D0034BF2
:100AF0001868C0F3404002B0704700BF00100240C9
:100B0000034A136823F0F80343EAC00010607047FB
:100B100000100240014B1860704700BF00004242C5
:100B2000034A536823F47C13194308435060704709
:100B300000100240014B1860704700BF6000424245
:100B4000034A536823F0030318435060704700BF03
:100B500000100240024B586800F00C00704700BFC4
:100B600000100240034A536823F0F003184350601A
:100B7000704700BF00100240034A536823F4E0634B
:100B800018435060704700BF00100240034A53688A
:100B900023F4605343EAC0005060704700100240E5
:100BA00029B9054A137823EA000010707047024BF8
:100BB0001A7810431870704709100240014B1860F2
:100BC000704700BFD8004242034A536823F44043B1
:100BD00018435060704700BF00100240064B0022CF
:100BE00001281A701A7005D0042802D105221A7043
:100BF000704770471870704720100240014B186012
:100C0000704700BF80044242024A136A18431062D0
:100C1000704700BF00100240014B1860704700BFD2
:100C20003C044242214A10B4536803F00C03042BE5
:100C300006D0082B25D01BB11D4A1346026001E0E7
:100C40001B4B0360194A1B495468C4F303140C5D21
:100C5000E34043605468C4F302240C5D23FA04F4B7
:100C600084605468C4F3C2240C5DE340C3605268DE
:100C700010BCC2F381320A44127CB3FBF2F303616D
:100C8000704753685168C3F38343C90303F10203F8
:100C900007D55268920304D4054A02FB03F30360AC
:100CA000D0E7054A02FB03F30360CBE700100240E4
:100CB00000127A001400002000093D0029B9054AFD
:100CC000536923EA000050617047024B5A69104390
:100CD000586170470010024029B9054A936923EA18
:100CE000000090617047024B9A6910439861704709
:100CF0000010024029B9054AD36923EA0000D061F7
:100D00007047024BDA691043D86170470010024007
:100D100029B9054AD36823EA0000D0607047024B26
:100D2000DA681043D86070470010024029B9054ABC
:100D3000136923EA000010617047024B1A691043DF
:100D40001861704700100240014B1860704700BFE7
:100D500040044242014B1860704700BF4C004242C1
:100D6000014B1870704700BF071002404309012B68
:100D70000BD0022B094B00F01F000CBF1B6A5B6AF3
:100D800023FA00F000F001007047044B00F01F0050
:100D90001B6823FA00F000F00100704700100240C9
:100DA000024A536A43F08073536270470010024056
:100DB000034B9B68184214BF01200020704700BFFE
:100DC00000100240014B1870704700BF0A1002402B
:100DD000844641EA000313F0030349D1403A23D388
:100DE0000B6803604B6843608B688360CB68C360AB
:100DF0000B6903614B6943618B698361CB69C36193
:100E00000B6A03624B6A43628B6A8362CB6AC3627A
:100E10000B6B03634B6B43638B6B8363CB6BC36362
:100E200040304031403ADBD230320BD30B680360A4
:100E30004B6843608B688360CB68C36010301031AF
:100E4000103AF3D20C3205D351F8043B40F8043B7E
:100E5000043AF9D2043208D0D2071CBF11F8013B82
:100E600000F8013B01D30B8803806046704700BF48
:100E7000082A13D38B07B1D010F00303AED0C3F10F
:100E80000403D21ADB071CBF11F8013B00F8013B39
:100E9000A4D331F8023B20F8023B9FE7043AD9D3B0
:100EA000013A11F8013B00F8013BF9D20B780370CD
:100EB0004B7843708B7883706046704770B48407BA
:100EC00046D0541E002A41D0CDB2034602E0621E35
:100ED000E4B3144603F8015B9A07F8D1032C2ED92A
:100EE000CDB245EA05250F2C45EA054519D9264618
:100EF00003F11002103E0F2E42F8105C42F80C5C19
:100F000042F8085C42F8045C02F11002F2D8A4F145
:100F1000100222F00F0204F00F041032032C1344CD
:100F20000DD91E462246043A032A46F8045BFAD835
:100F3000221F22F003020432134404F003042CB1F4
:100F4000C9B21C4403F8011BA342FBD170BC70471B
:080F500014460346C2E700BF8E
:100F58000000000000000000010203040607080961
:100F680000A24A0400000000010203040102030475
:080F780006070809020406083F
:04000005080001E509
:00000001FF
